{
  "_format": "hh-sol-artifact-1",
  "contractName": "Merkle",
  "sourceName": "contracts/Merkle.sol",
  "abi": [
    {
      "inputs": [
        {
          "internalType": "bytes32",
          "name": "_root",
          "type": "bytes32"
        }
      ],
      "stateMutability": "nonpayable",
      "type": "constructor"
    },
    {
      "anonymous": false,
      "inputs": [
        {
          "indexed": true,
          "internalType": "address",
          "name": "account",
          "type": "address"
        },
        {
          "indexed": true,
          "internalType": "address",
          "name": "operator",
          "type": "address"
        },
        {
          "indexed": false,
          "internalType": "bool",
          "name": "approved",
          "type": "bool"
        }
      ],
      "name": "ApprovalForAll",
      "type": "event"
    },
    {
      "anonymous": false,
      "inputs": [
        {
          "indexed": true,
          "internalType": "address",
          "name": "operator",
          "type": "address"
        },
        {
          "indexed": true,
          "internalType": "address",
          "name": "from",
          "type": "address"
        },
        {
          "indexed": true,
          "internalType": "address",
          "name": "to",
          "type": "address"
        },
        {
          "indexed": false,
          "internalType": "uint256[]",
          "name": "ids",
          "type": "uint256[]"
        },
        {
          "indexed": false,
          "internalType": "uint256[]",
          "name": "values",
          "type": "uint256[]"
        }
      ],
      "name": "TransferBatch",
      "type": "event"
    },
    {
      "anonymous": false,
      "inputs": [
        {
          "indexed": true,
          "internalType": "address",
          "name": "operator",
          "type": "address"
        },
        {
          "indexed": true,
          "internalType": "address",
          "name": "from",
          "type": "address"
        },
        {
          "indexed": true,
          "internalType": "address",
          "name": "to",
          "type": "address"
        },
        {
          "indexed": false,
          "internalType": "uint256",
          "name": "id",
          "type": "uint256"
        },
        {
          "indexed": false,
          "internalType": "uint256",
          "name": "value",
          "type": "uint256"
        }
      ],
      "name": "TransferSingle",
      "type": "event"
    },
    {
      "anonymous": false,
      "inputs": [
        {
          "indexed": false,
          "internalType": "string",
          "name": "value",
          "type": "string"
        },
        {
          "indexed": true,
          "internalType": "uint256",
          "name": "id",
          "type": "uint256"
        }
      ],
      "name": "URI",
      "type": "event"
    },
    {
      "inputs": [
        {
          "internalType": "bytes32[]",
          "name": "_proof",
          "type": "bytes32[]"
        },
        {
          "internalType": "address",
          "name": "_accountToSendTokensTo",
          "type": "address"
        }
      ],
      "name": "airdrop",
      "outputs": [],
      "stateMutability": "nonpayable",
      "type": "function"
    },
    {
      "inputs": [
        {
          "internalType": "address",
          "name": "account",
          "type": "address"
        },
        {
          "internalType": "uint256",
          "name": "id",
          "type": "uint256"
        }
      ],
      "name": "balanceOf",
      "outputs": [
        {
          "internalType": "uint256",
          "name": "",
          "type": "uint256"
        }
      ],
      "stateMutability": "view",
      "type": "function"
    },
    {
      "inputs": [
        {
          "internalType": "address[]",
          "name": "accounts",
          "type": "address[]"
        },
        {
          "internalType": "uint256[]",
          "name": "ids",
          "type": "uint256[]"
        }
      ],
      "name": "balanceOfBatch",
      "outputs": [
        {
          "internalType": "uint256[]",
          "name": "",
          "type": "uint256[]"
        }
      ],
      "stateMutability": "view",
      "type": "function"
    },
    {
      "inputs": [
        {
          "internalType": "address",
          "name": "account",
          "type": "address"
        },
        {
          "internalType": "address",
          "name": "operator",
          "type": "address"
        }
      ],
      "name": "isApprovedForAll",
      "outputs": [
        {
          "internalType": "bool",
          "name": "",
          "type": "bool"
        }
      ],
      "stateMutability": "view",
      "type": "function"
    },
    {
      "inputs": [],
      "name": "name",
      "outputs": [
        {
          "internalType": "string",
          "name": "",
          "type": "string"
        }
      ],
      "stateMutability": "view",
      "type": "function"
    },
    {
      "inputs": [
        {
          "internalType": "address",
          "name": "from",
          "type": "address"
        },
        {
          "internalType": "address",
          "name": "to",
          "type": "address"
        },
        {
          "internalType": "uint256[]",
          "name": "ids",
          "type": "uint256[]"
        },
        {
          "internalType": "uint256[]",
          "name": "amounts",
          "type": "uint256[]"
        },
        {
          "internalType": "bytes",
          "name": "data",
          "type": "bytes"
        }
      ],
      "name": "safeBatchTransferFrom",
      "outputs": [],
      "stateMutability": "nonpayable",
      "type": "function"
    },
    {
      "inputs": [
        {
          "internalType": "address",
          "name": "from",
          "type": "address"
        },
        {
          "internalType": "address",
          "name": "to",
          "type": "address"
        },
        {
          "internalType": "uint256",
          "name": "id",
          "type": "uint256"
        },
        {
          "internalType": "uint256",
          "name": "amount",
          "type": "uint256"
        },
        {
          "internalType": "bytes",
          "name": "data",
          "type": "bytes"
        }
      ],
      "name": "safeTransferFrom",
      "outputs": [],
      "stateMutability": "nonpayable",
      "type": "function"
    },
    {
      "inputs": [
        {
          "internalType": "address",
          "name": "operator",
          "type": "address"
        },
        {
          "internalType": "bool",
          "name": "approved",
          "type": "bool"
        }
      ],
      "name": "setApprovalForAll",
      "outputs": [],
      "stateMutability": "nonpayable",
      "type": "function"
    },
    {
      "inputs": [
        {
          "internalType": "bytes4",
          "name": "interfaceId",
          "type": "bytes4"
        }
      ],
      "name": "supportsInterface",
      "outputs": [
        {
          "internalType": "bool",
          "name": "",
          "type": "bool"
        }
      ],
      "stateMutability": "view",
      "type": "function"
    },
    {
      "inputs": [
        {
          "internalType": "uint256",
          "name": "",
          "type": "uint256"
        }
      ],
      "name": "uri",
      "outputs": [
        {
          "internalType": "string",
          "name": "",
          "type": "string"
        }
      ],
      "stateMutability": "view",
      "type": "function"
    }
  ],
  "bytecode": "0x60c0604052600f60808190526e2bb0b6363132b2902337bab73232b960891b60a0908152620000329160039190620000ab565b503480156200004057600080fd5b5060405162001a2738038062001a27833981016040819052620000639162000151565b6040518060800160405280605a8152602001620019cd605a9139620000888162000092565b50600455620001a7565b8051620000a7906002906020840190620000ab565b5050565b828054620000b9906200016a565b90600052602060002090601f016020900481019282620000dd576000855562000128565b82601f10620000f857805160ff191683800117855562000128565b8280016001018555821562000128579182015b82811115620001285782518255916020019190600101906200010b565b50620001369291506200013a565b5090565b5b808211156200013657600081556001016200013b565b60006020828403121562000163578081fd5b5051919050565b600181811c908216806200017f57607f821691505b60208210811415620001a157634e487b7160e01b600052602260045260246000fd5b50919050565b61181680620001b76000396000f3fe608060405234801561001057600080fd5b506004361061009d5760003560e01c80634e1273f4116100665780634e1273f414610128578063a22cb46514610148578063c373a98c1461015b578063e985e9c51461016e578063f242432a146101aa57600080fd5b8062fdd58e146100a257806301ffc9a7146100c857806306fdde03146100eb5780630e89341c146101005780632eb2c2d614610113575b600080fd5b6100b56100b03660046111d6565b6101bd565b6040519081526020015b60405180910390f35b6100db6100d6366004611349565b610253565b60405190151581526020016100bf565b6100f36102a5565b6040516100bf9190611502565b6100f361010e366004611381565b610333565b610126610121366004611093565b6103c7565b005b61013b6101363660046111ff565b610413565b6040516100bf91906114c1565b61012661015636600461119c565b610575565b6101266101693660046112ca565b610584565b6100db61017c366004611061565b6001600160a01b03918216600090815260016020908152604080832093909416825291909152205460ff1690565b6101266101b8366004611139565b6106dc565b60006001600160a01b03831661022d5760405162461bcd60e51b815260206004820152602a60248201527f455243313135353a2061646472657373207a65726f206973206e6f742061207660448201526930b634b21037bbb732b960b11b60648201526084015b60405180910390fd5b506000908152602081815260408083206001600160a01b03949094168352929052205490565b60006001600160e01b03198216636cdb3d1360e11b148061028457506001600160e01b031982166303a24d0760e21b145b8061029f57506301ffc9a760e01b6001600160e01b03198316145b92915050565b600380546102b290611676565b80601f01602080910402602001604051908101604052809291908181526020018280546102de90611676565b801561032b5780601f106103005761010080835404028352916020019161032b565b820191906000526020600020905b81548152906001019060200180831161030e57829003601f168201915b505050505081565b60606002805461034290611676565b80601f016020809104026020016040519081016040528092919081815260200182805461036e90611676565b80156103bb5780601f10610390576101008083540402835291602001916103bb565b820191906000526020600020905b81548152906001019060200180831161039e57829003601f168201915b50505050509050919050565b6001600160a01b0385163314806103e357506103e3853361017c565b6103ff5760405162461bcd60e51b81526004016102249061155d565b61040c8585858585610721565b5050505050565b606081518351146104785760405162461bcd60e51b815260206004820152602960248201527f455243313135353a206163636f756e747320616e6420696473206c656e677468604482015268040dad2e6dac2e8c6d60bb1b6064820152608401610224565b6000835167ffffffffffffffff8111156104a257634e487b7160e01b600052604160045260246000fd5b6040519080825280602002602001820160405280156104cb578160200160208202803683370190505b50905060005b845181101561056d576105328582815181106104fd57634e487b7160e01b600052603260045260246000fd5b602002602001015185838151811061052557634e487b7160e01b600052603260045260246000fd5b60200260200101516101bd565b82828151811061055257634e487b7160e01b600052603260045260246000fd5b6020908102919091010152610566816116de565b90506104d1565b509392505050565b61058033838361091a565b5050565b60006105fc848480806020026020016040519081016040528093929190818152602001838360200280828437600092019190915250506004546040516bffffffffffffffffffffffff19606089901b1660208201529092506034019050604051602081830303815290604052805190602001206109fb565b90508061063a5760405162461bcd60e51b815260206004820152600c60248201526b6e6f7420656c696769626c6560a01b6044820152606401610224565b6001600160a01b03821660009081526005602052604090205460ff16156106955760405162461bcd60e51b815260206004820152600f60248201526e185b1c9958591e4818db185a5b5959608a1b6044820152606401610224565b6001600160a01b0382166000908152600560209081526040808320805460ff1916600190811790915581519283019091529181526106d69184918190610a11565b50505050565b6001600160a01b0385163314806106f857506106f8853361017c565b6107145760405162461bcd60e51b81526004016102249061155d565b61040c8585858585610b25565b81518351146107835760405162461bcd60e51b815260206004820152602860248201527f455243313135353a2069647320616e6420616d6f756e7473206c656e677468206044820152670dad2e6dac2e8c6d60c31b6064820152608401610224565b6001600160a01b0384166107a95760405162461bcd60e51b8152600401610224906115ab565b3360005b84518110156108ac5760008582815181106107d857634e487b7160e01b600052603260045260246000fd5b60200260200101519050600085838151811061080457634e487b7160e01b600052603260045260246000fd5b602090810291909101810151600084815280835260408082206001600160a01b038e1683529093529190912054909150818110156108545760405162461bcd60e51b8152600401610224906115f0565b6000838152602081815260408083206001600160a01b038e8116855292528083208585039055908b1682528120805484929061089190849061165e565b92505081905550505050806108a5906116de565b90506107ad565b50846001600160a01b0316866001600160a01b0316826001600160a01b03167f4a39dc06d4c0dbc64b70af90fd698a233a518aa5d07e595d983b8c0526c8f7fb87876040516108fc9291906114d4565b60405180910390a4610912818787878787610c4f565b505050505050565b816001600160a01b0316836001600160a01b0316141561098e5760405162461bcd60e51b815260206004820152602960248201527f455243313135353a2073657474696e6720617070726f76616c20737461747573604482015268103337b91039b2b63360b91b6064820152608401610224565b6001600160a01b03838116600081815260016020908152604080832094871680845294825291829020805460ff191686151590811790915591519182527f17307eab39ab6107e8899845ad3d59bd9653f200f220920489ca2b5937696c31910160405180910390a3505050565b600082610a088584610dba565b14949350505050565b6001600160a01b038416610a715760405162461bcd60e51b815260206004820152602160248201527f455243313135353a206d696e7420746f20746865207a65726f206164647265736044820152607360f81b6064820152608401610224565b336000610a7d85610e0d565b90506000610a8a85610e0d565b90506000868152602081815260408083206001600160a01b038b16845290915281208054879290610abc90849061165e565b909155505060408051878152602081018790526001600160a01b03808a1692600092918716917fc3d58168c5ae7397731d063d5bbf3d657854427343f4c083240f7aacaa2d0f62910160405180910390a4610b1c83600089898989610e66565b50505050505050565b6001600160a01b038416610b4b5760405162461bcd60e51b8152600401610224906115ab565b336000610b5785610e0d565b90506000610b6485610e0d565b90506000868152602081815260408083206001600160a01b038c16845290915290205485811015610ba75760405162461bcd60e51b8152600401610224906115f0565b6000878152602081815260408083206001600160a01b038d8116855292528083208985039055908a16825281208054889290610be490849061165e565b909155505060408051888152602081018890526001600160a01b03808b16928c821692918816917fc3d58168c5ae7397731d063d5bbf3d657854427343f4c083240f7aacaa2d0f62910160405180910390a4610c44848a8a8a8a8a610e66565b505050505050505050565b6001600160a01b0384163b156109125760405163bc197c8160e01b81526001600160a01b0385169063bc197c8190610c93908990899088908890889060040161141e565b602060405180830381600087803b158015610cad57600080fd5b505af1925050508015610cdd575060408051601f3d908101601f19168201909252610cda91810190611365565b60015b610d8a57610ce9611725565b806308c379a01415610d235750610cfe61173d565b80610d095750610d25565b8060405162461bcd60e51b81526004016102249190611502565b505b60405162461bcd60e51b815260206004820152603460248201527f455243313135353a207472616e7366657220746f206e6f6e2d455243313135356044820152732932b1b2b4bb32b91034b6b83632b6b2b73a32b960611b6064820152608401610224565b6001600160e01b0319811663bc197c8160e01b14610b1c5760405162461bcd60e51b815260040161022490611515565b600081815b845181101561056d57610df982868381518110610dec57634e487b7160e01b600052603260045260246000fd5b6020026020010151610f30565b915080610e05816116de565b915050610dbf565b60408051600180825281830190925260609160009190602080830190803683370190505090508281600081518110610e5557634e487b7160e01b600052603260045260246000fd5b602090810291909101015292915050565b6001600160a01b0384163b156109125760405163f23a6e6160e01b81526001600160a01b0385169063f23a6e6190610eaa908990899088908890889060040161147c565b602060405180830381600087803b158015610ec457600080fd5b505af1925050508015610ef4575060408051601f3d908101601f19168201909252610ef191810190611365565b60015b610f0057610ce9611725565b6001600160e01b0319811663f23a6e6160e01b14610b1c5760405162461bcd60e51b815260040161022490611515565b6000818310610f4c576000828152602084905260409020610f5b565b60008381526020839052604090205b9392505050565b80356001600160a01b0381168114610f7957600080fd5b919050565b600082601f830112610f8e578081fd5b81356020610f9b8261163a565b604051610fa882826116b1565b8381528281019150858301600585901b87018401881015610fc7578586fd5b855b85811015610fe557813584529284019290840190600101610fc9565b5090979650505050505050565b600082601f830112611002578081fd5b813567ffffffffffffffff81111561101c5761101c61170f565b604051611033601f8301601f1916602001826116b1565b818152846020838601011115611047578283fd5b816020850160208301379081016020019190915292915050565b60008060408385031215611073578182fd5b61107c83610f62565b915061108a60208401610f62565b90509250929050565b600080600080600060a086880312156110aa578081fd5b6110b386610f62565b94506110c160208701610f62565b9350604086013567ffffffffffffffff808211156110dd578283fd5b6110e989838a01610f7e565b945060608801359150808211156110fe578283fd5b61110a89838a01610f7e565b9350608088013591508082111561111f578283fd5b5061112c88828901610ff2565b9150509295509295909350565b600080600080600060a08688031215611150578081fd5b61115986610f62565b945061116760208701610f62565b93506040860135925060608601359150608086013567ffffffffffffffff811115611190578182fd5b61112c88828901610ff2565b600080604083850312156111ae578182fd5b6111b783610f62565b9150602083013580151581146111cb578182fd5b809150509250929050565b600080604083850312156111e8578182fd5b6111f183610f62565b946020939093013593505050565b60008060408385031215611211578182fd5b823567ffffffffffffffff80821115611228578384fd5b818501915085601f83011261123b578384fd5b813560206112488261163a565b60405161125582826116b1565b8381528281019150858301600585901b870184018b1015611274578889fd5b8896505b8487101561129d5761128981610f62565b835260019690960195918301918301611278565b50965050860135925050808211156112b3578283fd5b506112c085828601610f7e565b9150509250929050565b6000806000604084860312156112de578283fd5b833567ffffffffffffffff808211156112f5578485fd5b818601915086601f830112611308578485fd5b813581811115611316578586fd5b8760208260051b850101111561132a578586fd5b6020928301955093506113409186019050610f62565b90509250925092565b60006020828403121561135a578081fd5b8135610f5b816117c7565b600060208284031215611376578081fd5b8151610f5b816117c7565b600060208284031215611392578081fd5b5035919050565b6000815180845260208085019450808401835b838110156113c8578151875295820195908201906001016113ac565b509495945050505050565b60008151808452815b818110156113f8576020818501810151868301820152016113dc565b818111156114095782602083870101525b50601f01601f19169290920160200192915050565b6001600160a01b0386811682528516602082015260a06040820181905260009061144a90830186611399565b828103606084015261145c8186611399565b9050828103608084015261147081856113d3565b98975050505050505050565b6001600160a01b03868116825285166020820152604081018490526060810183905260a0608082018190526000906114b6908301846113d3565b979650505050505050565b602081526000610f5b6020830184611399565b6040815260006114e76040830185611399565b82810360208401526114f98185611399565b95945050505050565b602081526000610f5b60208301846113d3565b60208082526028908201527f455243313135353a204552433131353552656365697665722072656a656374656040820152676420746f6b656e7360c01b606082015260800190565b6020808252602e908201527f455243313135353a2063616c6c6572206973206e6f7420746f6b656e206f776e60408201526d195c881bdc88185c1c1c9bdd995960921b606082015260800190565b60208082526025908201527f455243313135353a207472616e7366657220746f20746865207a65726f206164604082015264647265737360d81b606082015260800190565b6020808252602a908201527f455243313135353a20696e73756666696369656e742062616c616e636520666f60408201526939103a3930b739b332b960b11b606082015260800190565b600067ffffffffffffffff8211156116545761165461170f565b5060051b60200190565b60008219821115611671576116716116f9565b500190565b600181811c9082168061168a57607f821691505b602082108114156116ab57634e487b7160e01b600052602260045260246000fd5b50919050565b601f8201601f1916810167ffffffffffffffff811182821017156116d7576116d761170f565b6040525050565b60006000198214156116f2576116f26116f9565b5060010190565b634e487b7160e01b600052601160045260246000fd5b634e487b7160e01b600052604160045260246000fd5b600060033d111561173a57600481823e5160e01c5b90565b600060443d101561174b5790565b6040516003193d81016004833e81513d67ffffffffffffffff816024840111818411171561177b57505050505090565b82850191508151818111156117935750505050505090565b843d87010160208285010111156117ad5750505050505090565b6117bc602082860101876116b1565b509095945050505050565b6001600160e01b0319811681146117dd57600080fd5b5056fea2646970667358221220a8b5510fb5815e27aa308c72752f99b08c65c93f422c71dbcdbe65461edc08b164736f6c6343000804003368747470733a2f2f676174657761792e70696e6174612e636c6f75642f697066732f516d623878415a5147545a536d547a385339754d363175776f675379684a6d3374734735334b57364365576169472f7b69647d2e6a736f6e",
  "linkReferences": {},
  "deployedLinkReferences": {}
}