{
  "_format": "hh-sol-artifact-1",
  "contractName": "Merkle",
  "sourceName": "contracts/Merkle.sol",
  "abi": [
    {
      "inputs": [
        {
          "internalType": "bytes32",
          "name": "_root",
          "type": "bytes32"
        }
      ],
      "stateMutability": "nonpayable",
      "type": "constructor"
    },
    {
      "anonymous": false,
      "inputs": [
        {
          "indexed": true,
          "internalType": "address",
          "name": "account",
          "type": "address"
        },
        {
          "indexed": true,
          "internalType": "address",
          "name": "operator",
          "type": "address"
        },
        {
          "indexed": false,
          "internalType": "bool",
          "name": "approved",
          "type": "bool"
        }
      ],
      "name": "ApprovalForAll",
      "type": "event"
    },
    {
      "anonymous": false,
      "inputs": [
        {
          "indexed": true,
          "internalType": "address",
          "name": "operator",
          "type": "address"
        },
        {
          "indexed": true,
          "internalType": "address",
          "name": "from",
          "type": "address"
        },
        {
          "indexed": true,
          "internalType": "address",
          "name": "to",
          "type": "address"
        },
        {
          "indexed": false,
          "internalType": "uint256[]",
          "name": "ids",
          "type": "uint256[]"
        },
        {
          "indexed": false,
          "internalType": "uint256[]",
          "name": "values",
          "type": "uint256[]"
        }
      ],
      "name": "TransferBatch",
      "type": "event"
    },
    {
      "anonymous": false,
      "inputs": [
        {
          "indexed": true,
          "internalType": "address",
          "name": "operator",
          "type": "address"
        },
        {
          "indexed": true,
          "internalType": "address",
          "name": "from",
          "type": "address"
        },
        {
          "indexed": true,
          "internalType": "address",
          "name": "to",
          "type": "address"
        },
        {
          "indexed": false,
          "internalType": "uint256",
          "name": "id",
          "type": "uint256"
        },
        {
          "indexed": false,
          "internalType": "uint256",
          "name": "value",
          "type": "uint256"
        }
      ],
      "name": "TransferSingle",
      "type": "event"
    },
    {
      "anonymous": false,
      "inputs": [
        {
          "indexed": false,
          "internalType": "string",
          "name": "value",
          "type": "string"
        },
        {
          "indexed": true,
          "internalType": "uint256",
          "name": "id",
          "type": "uint256"
        }
      ],
      "name": "URI",
      "type": "event"
    },
    {
      "inputs": [
        {
          "internalType": "bytes32[]",
          "name": "_proof",
          "type": "bytes32[]"
        },
        {
          "internalType": "address",
          "name": "_accountToSendTokensTo",
          "type": "address"
        }
      ],
      "name": "airdrop",
      "outputs": [],
      "stateMutability": "nonpayable",
      "type": "function"
    },
    {
      "inputs": [
        {
          "internalType": "address",
          "name": "account",
          "type": "address"
        },
        {
          "internalType": "uint256",
          "name": "id",
          "type": "uint256"
        }
      ],
      "name": "balanceOf",
      "outputs": [
        {
          "internalType": "uint256",
          "name": "",
          "type": "uint256"
        }
      ],
      "stateMutability": "view",
      "type": "function"
    },
    {
      "inputs": [
        {
          "internalType": "address[]",
          "name": "accounts",
          "type": "address[]"
        },
        {
          "internalType": "uint256[]",
          "name": "ids",
          "type": "uint256[]"
        }
      ],
      "name": "balanceOfBatch",
      "outputs": [
        {
          "internalType": "uint256[]",
          "name": "",
          "type": "uint256[]"
        }
      ],
      "stateMutability": "view",
      "type": "function"
    },
    {
      "inputs": [
        {
          "internalType": "address",
          "name": "account",
          "type": "address"
        },
        {
          "internalType": "address",
          "name": "operator",
          "type": "address"
        }
      ],
      "name": "isApprovedForAll",
      "outputs": [
        {
          "internalType": "bool",
          "name": "",
          "type": "bool"
        }
      ],
      "stateMutability": "view",
      "type": "function"
    },
    {
      "inputs": [
        {
          "internalType": "address",
          "name": "from",
          "type": "address"
        },
        {
          "internalType": "address",
          "name": "to",
          "type": "address"
        },
        {
          "internalType": "uint256[]",
          "name": "ids",
          "type": "uint256[]"
        },
        {
          "internalType": "uint256[]",
          "name": "amounts",
          "type": "uint256[]"
        },
        {
          "internalType": "bytes",
          "name": "data",
          "type": "bytes"
        }
      ],
      "name": "safeBatchTransferFrom",
      "outputs": [],
      "stateMutability": "nonpayable",
      "type": "function"
    },
    {
      "inputs": [
        {
          "internalType": "address",
          "name": "from",
          "type": "address"
        },
        {
          "internalType": "address",
          "name": "to",
          "type": "address"
        },
        {
          "internalType": "uint256",
          "name": "id",
          "type": "uint256"
        },
        {
          "internalType": "uint256",
          "name": "amount",
          "type": "uint256"
        },
        {
          "internalType": "bytes",
          "name": "data",
          "type": "bytes"
        }
      ],
      "name": "safeTransferFrom",
      "outputs": [],
      "stateMutability": "nonpayable",
      "type": "function"
    },
    {
      "inputs": [
        {
          "internalType": "address",
          "name": "operator",
          "type": "address"
        },
        {
          "internalType": "bool",
          "name": "approved",
          "type": "bool"
        }
      ],
      "name": "setApprovalForAll",
      "outputs": [],
      "stateMutability": "nonpayable",
      "type": "function"
    },
    {
      "inputs": [
        {
          "internalType": "bytes4",
          "name": "interfaceId",
          "type": "bytes4"
        }
      ],
      "name": "supportsInterface",
      "outputs": [
        {
          "internalType": "bool",
          "name": "",
          "type": "bool"
        }
      ],
      "stateMutability": "view",
      "type": "function"
    },
    {
      "inputs": [
        {
          "internalType": "uint256",
          "name": "",
          "type": "uint256"
        }
      ],
      "name": "uri",
      "outputs": [
        {
          "internalType": "string",
          "name": "",
          "type": "string"
        }
      ],
      "stateMutability": "view",
      "type": "function"
    }
  ],
  "bytecode": "0x60806040523480156200001157600080fd5b506040516200305a3803806200305a8339818101604052810190620000379190620000c6565b604051806060016040528060278152602001620030336027913962000062816200007160201b60201c565b50806003819055505062000459565b806002908162000082919062000372565b5050565b600080fd5b6000819050919050565b620000a0816200008b565b8114620000ac57600080fd5b50565b600081519050620000c08162000095565b92915050565b600060208284031215620000df57620000de62000086565b5b6000620000ef84828501620000af565b91505092915050565b600081519050919050565b7f4e487b7100000000000000000000000000000000000000000000000000000000600052604160045260246000fd5b7f4e487b7100000000000000000000000000000000000000000000000000000000600052602260045260246000fd5b600060028204905060018216806200017a57607f821691505b60208210810362000190576200018f62000132565b5b50919050565b60008190508160005260206000209050919050565b60006020601f8301049050919050565b600082821b905092915050565b600060088302620001fa7fffffffffffffffffffffffffffffffffffffffffffffffffffffffffffffffff82620001bb565b620002068683620001bb565b95508019841693508086168417925050509392505050565b6000819050919050565b6000819050919050565b6000620002536200024d62000247846200021e565b62000228565b6200021e565b9050919050565b6000819050919050565b6200026f8362000232565b620002876200027e826200025a565b848454620001c8565b825550505050565b600090565b6200029e6200028f565b620002ab81848462000264565b505050565b5b81811015620002d357620002c760008262000294565b600181019050620002b1565b5050565b601f8211156200032257620002ec8162000196565b620002f784620001ab565b8101602085101562000307578190505b6200031f6200031685620001ab565b830182620002b0565b50505b505050565b600082821c905092915050565b6000620003476000198460080262000327565b1980831691505092915050565b600062000362838362000334565b9150826002028217905092915050565b6200037d82620000f8565b67ffffffffffffffff81111562000399576200039862000103565b5b620003a5825462000161565b620003b2828285620002d7565b600060209050601f831160018114620003ea5760008415620003d5578287015190505b620003e1858262000354565b86555062000451565b601f198416620003fa8662000196565b60005b828110156200042457848901518255600182019150602085019450602081019050620003fd565b8683101562000444578489015162000440601f89168262000334565b8355505b6001600288020188555050505b505050505050565b612bca80620004696000396000f3fe608060405234801561001057600080fd5b50600436106100925760003560e01c80634e1273f4116100665780634e1273f414610143578063a22cb46514610173578063c373a98c1461018f578063e985e9c5146101ab578063f242432a146101db57610092565b8062fdd58e1461009757806301ffc9a7146100c75780630e89341c146100f75780632eb2c2d614610127575b600080fd5b6100b160048036038101906100ac91906117fb565b6101f7565b6040516100be919061184a565b60405180910390f35b6100e160048036038101906100dc91906118bd565b6102bf565b6040516100ee9190611905565b60405180910390f35b610111600480360381019061010c9190611920565b6103a1565b60405161011e91906119dd565b60405180910390f35b610141600480360381019061013c9190611bfc565b610435565b005b61015d60048036038101906101589190611d8e565b6104d6565b60405161016a9190611ec4565b60405180910390f35b61018d60048036038101906101889190611f12565b6105ef565b005b6101a960048036038101906101a49190611fad565b610605565b005b6101c560048036038101906101c0919061200d565b6107ca565b6040516101d29190611905565b60405180910390f35b6101f560048036038101906101f0919061204d565b61085e565b005b60008073ffffffffffffffffffffffffffffffffffffffff168373ffffffffffffffffffffffffffffffffffffffff1603610267576040517f08c379a000000000000000000000000000000000000000000000000000000000815260040161025e90612156565b60405180910390fd5b60008083815260200190815260200160002060008473ffffffffffffffffffffffffffffffffffffffff1673ffffffffffffffffffffffffffffffffffffffff16815260200190815260200160002054905092915050565b60007fd9b67a26000000000000000000000000000000000000000000000000000000007bffffffffffffffffffffffffffffffffffffffffffffffffffffffff1916827bffffffffffffffffffffffffffffffffffffffffffffffffffffffff1916148061038a57507f0e89341c000000000000000000000000000000000000000000000000000000007bffffffffffffffffffffffffffffffffffffffffffffffffffffffff1916827bffffffffffffffffffffffffffffffffffffffffffffffffffffffff1916145b8061039a5750610399826108ff565b5b9050919050565b6060600280546103b0906121a5565b80601f01602080910402602001604051908101604052809291908181526020018280546103dc906121a5565b80156104295780601f106103fe57610100808354040283529160200191610429565b820191906000526020600020905b81548152906001019060200180831161040c57829003601f168201915b50505050509050919050565b61043d610969565b73ffffffffffffffffffffffffffffffffffffffff168573ffffffffffffffffffffffffffffffffffffffff16148061048357506104828561047d610969565b6107ca565b5b6104c2576040517f08c379a00000000000000000000000000000000000000000000000000000000081526004016104b990612248565b60405180910390fd5b6104cf8585858585610971565b5050505050565b6060815183511461051c576040517f08c379a0000000000000000000000000000000000000000000000000000000008152600401610513906122da565b60405180910390fd5b6000835167ffffffffffffffff81111561053957610538611a04565b5b6040519080825280602002602001820160405280156105675781602001602082028036833780820191505090505b50905060005b84518110156105e4576105b485828151811061058c5761058b6122fa565b5b60200260200101518583815181106105a7576105a66122fa565b5b60200260200101516101f7565b8282815181106105c7576105c66122fa565b5b602002602001018181525050806105dd90612358565b905061056d565b508091505092915050565b6106016105fa610969565b8383610c92565b5050565b600061067b848480806020026020016040519081016040528093929190818152602001838360200280828437600081840152601f19601f820116905080830192505050505050506003548460405160200161066091906123e8565b60405160208183030381529060405280519060200120610dfe565b9050806106bd576040517f08c379a00000000000000000000000000000000000000000000000000000000081526004016106b49061244f565b60405180910390fd5b60001515600460008473ffffffffffffffffffffffffffffffffffffffff1673ffffffffffffffffffffffffffffffffffffffff16815260200190815260200160002060009054906101000a900460ff16151514610750576040517f08c379a0000000000000000000000000000000000000000000000000000000008152600401610747906124bb565b60405180910390fd5b6001600460008473ffffffffffffffffffffffffffffffffffffffff1673ffffffffffffffffffffffffffffffffffffffff16815260200190815260200160002060006101000a81548160ff0219169083151502179055506107c48260018060405180602001604052806000815250610e15565b50505050565b6000600160008473ffffffffffffffffffffffffffffffffffffffff1673ffffffffffffffffffffffffffffffffffffffff16815260200190815260200160002060008373ffffffffffffffffffffffffffffffffffffffff1673ffffffffffffffffffffffffffffffffffffffff16815260200190815260200160002060009054906101000a900460ff16905092915050565b610866610969565b73ffffffffffffffffffffffffffffffffffffffff168573ffffffffffffffffffffffffffffffffffffffff1614806108ac57506108ab856108a6610969565b6107ca565b5b6108eb576040517f08c379a00000000000000000000000000000000000000000000000000000000081526004016108e290612248565b60405180910390fd5b6108f88585858585610fc5565b5050505050565b60007f01ffc9a7000000000000000000000000000000000000000000000000000000007bffffffffffffffffffffffffffffffffffffffffffffffffffffffff1916827bffffffffffffffffffffffffffffffffffffffffffffffffffffffff1916149050919050565b600033905090565b81518351146109b5576040517f08c379a00000000000000000000000000000000000000000000000000000000081526004016109ac9061254d565b60405180910390fd5b600073ffffffffffffffffffffffffffffffffffffffff168473ffffffffffffffffffffffffffffffffffffffff1603610a24576040517f08c379a0000000000000000000000000000000000000000000000000000000008152600401610a1b906125df565b60405180910390fd5b6000610a2e610969565b9050610a3e818787878787611260565b60005b8451811015610bef576000858281518110610a5f57610a5e6122fa565b5b602002602001015190506000858381518110610a7e57610a7d6122fa565b5b60200260200101519050600080600084815260200190815260200160002060008b73ffffffffffffffffffffffffffffffffffffffff1673ffffffffffffffffffffffffffffffffffffffff16815260200190815260200160002054905081811015610b1f576040517f08c379a0000000000000000000000000000000000000000000000000000000008152600401610b1690612671565b60405180910390fd5b81810360008085815260200190815260200160002060008c73ffffffffffffffffffffffffffffffffffffffff1673ffffffffffffffffffffffffffffffffffffffff168152602001908152602001600020819055508160008085815260200190815260200160002060008b73ffffffffffffffffffffffffffffffffffffffff1673ffffffffffffffffffffffffffffffffffffffff1681526020019081526020016000206000828254610bd49190612691565b9250508190555050505080610be890612358565b9050610a41565b508473ffffffffffffffffffffffffffffffffffffffff168673ffffffffffffffffffffffffffffffffffffffff168273ffffffffffffffffffffffffffffffffffffffff167f4a39dc06d4c0dbc64b70af90fd698a233a518aa5d07e595d983b8c0526c8f7fb8787604051610c669291906126c5565b60405180910390a4610c7c818787878787611268565b610c8a818787878787611270565b505050505050565b8173ffffffffffffffffffffffffffffffffffffffff168373ffffffffffffffffffffffffffffffffffffffff1603610d00576040517f08c379a0000000000000000000000000000000000000000000000000000000008152600401610cf79061276e565b60405180910390fd5b80600160008573ffffffffffffffffffffffffffffffffffffffff1673ffffffffffffffffffffffffffffffffffffffff16815260200190815260200160002060008473ffffffffffffffffffffffffffffffffffffffff1673ffffffffffffffffffffffffffffffffffffffff16815260200190815260200160002060006101000a81548160ff0219169083151502179055508173ffffffffffffffffffffffffffffffffffffffff168373ffffffffffffffffffffffffffffffffffffffff167f17307eab39ab6107e8899845ad3d59bd9653f200f220920489ca2b5937696c3183604051610df19190611905565b60405180910390a3505050565b600082610e0b8584611447565b1490509392505050565b600073ffffffffffffffffffffffffffffffffffffffff168473ffffffffffffffffffffffffffffffffffffffff1603610e84576040517f08c379a0000000000000000000000000000000000000000000000000000000008152600401610e7b90612800565b60405180910390fd5b6000610e8e610969565b90506000610e9b8561149d565b90506000610ea88561149d565b9050610eb983600089858589611260565b8460008088815260200190815260200160002060008973ffffffffffffffffffffffffffffffffffffffff1673ffffffffffffffffffffffffffffffffffffffff1681526020019081526020016000206000828254610f189190612691565b925050819055508673ffffffffffffffffffffffffffffffffffffffff16600073ffffffffffffffffffffffffffffffffffffffff168473ffffffffffffffffffffffffffffffffffffffff167fc3d58168c5ae7397731d063d5bbf3d657854427343f4c083240f7aacaa2d0f628989604051610f96929190612820565b60405180910390a4610fad83600089858589611268565b610fbc83600089898989611517565b50505050505050565b600073ffffffffffffffffffffffffffffffffffffffff168473ffffffffffffffffffffffffffffffffffffffff1603611034576040517f08c379a000000000000000000000000000000000000000000000000000000000815260040161102b906125df565b60405180910390fd5b600061103e610969565b9050600061104b8561149d565b905060006110588561149d565b9050611068838989858589611260565b600080600088815260200190815260200160002060008a73ffffffffffffffffffffffffffffffffffffffff1673ffffffffffffffffffffffffffffffffffffffff168152602001908152602001600020549050858110156110ff576040517f08c379a00000000000000000000000000000000000000000000000000000000081526004016110f690612671565b60405180910390fd5b85810360008089815260200190815260200160002060008b73ffffffffffffffffffffffffffffffffffffffff1673ffffffffffffffffffffffffffffffffffffffff168152602001908152602001600020819055508560008089815260200190815260200160002060008a73ffffffffffffffffffffffffffffffffffffffff1673ffffffffffffffffffffffffffffffffffffffff16815260200190815260200160002060008282546111b49190612691565b925050819055508773ffffffffffffffffffffffffffffffffffffffff168973ffffffffffffffffffffffffffffffffffffffff168573ffffffffffffffffffffffffffffffffffffffff167fc3d58168c5ae7397731d063d5bbf3d657854427343f4c083240f7aacaa2d0f628a8a604051611231929190612820565b60405180910390a4611247848a8a86868a611268565b611255848a8a8a8a8a611517565b505050505050505050565b505050505050565b505050505050565b61128f8473ffffffffffffffffffffffffffffffffffffffff166116ee565b1561143f578373ffffffffffffffffffffffffffffffffffffffff1663bc197c8187878686866040518663ffffffff1660e01b81526004016112d59594939291906128ad565b6020604051808303816000875af192505050801561131157506040513d601f19601f8201168201806040525081019061130e919061292a565b60015b6113b65761131d612964565b806308c379a0036113795750611331612986565b8061133c575061137b565b806040517f08c379a000000000000000000000000000000000000000000000000000000000815260040161137091906119dd565b60405180910390fd5b505b6040517f08c379a00000000000000000000000000000000000000000000000000000000081526004016113ad90612a88565b60405180910390fd5b63bc197c8160e01b7bffffffffffffffffffffffffffffffffffffffffffffffffffffffff1916817bffffffffffffffffffffffffffffffffffffffffffffffffffffffff19161461143d576040517f08c379a000000000000000000000000000000000000000000000000000000000815260040161143490612b1a565b60405180910390fd5b505b505050505050565b60008082905060005b84518110156114925761147d828683815181106114705761146f6122fa565b5b6020026020010151611711565b9150808061148a90612358565b915050611450565b508091505092915050565b60606000600167ffffffffffffffff8111156114bc576114bb611a04565b5b6040519080825280602002602001820160405280156114ea5781602001602082028036833780820191505090505b5090508281600081518110611502576115016122fa565b5b60200260200101818152505080915050919050565b6115368473ffffffffffffffffffffffffffffffffffffffff166116ee565b156116e6578373ffffffffffffffffffffffffffffffffffffffff1663f23a6e6187878686866040518663ffffffff1660e01b815260040161157c959493929190612b3a565b6020604051808303816000875af19250505080156115b857506040513d601f19601f820116820180604052508101906115b5919061292a565b60015b61165d576115c4612964565b806308c379a00361162057506115d8612986565b806115e35750611622565b806040517f08c379a000000000000000000000000000000000000000000000000000000000815260040161161791906119dd565b60405180910390fd5b505b6040517f08c379a000000000000000000000000000000000000000000000000000000000815260040161165490612a88565b60405180910390fd5b63f23a6e6160e01b7bffffffffffffffffffffffffffffffffffffffffffffffffffffffff1916817bffffffffffffffffffffffffffffffffffffffffffffffffffffffff1916146116e4576040517f08c379a00000000000000000000000000000000000000000000000000000000081526004016116db90612b1a565b60405180910390fd5b505b505050505050565b6000808273ffffffffffffffffffffffffffffffffffffffff163b119050919050565b600081831061172957611724828461173c565b611734565b611733838361173c565b5b905092915050565b600082600052816020526040600020905092915050565b6000604051905090565b600080fd5b600080fd5b600073ffffffffffffffffffffffffffffffffffffffff82169050919050565b600061179282611767565b9050919050565b6117a281611787565b81146117ad57600080fd5b50565b6000813590506117bf81611799565b92915050565b6000819050919050565b6117d8816117c5565b81146117e357600080fd5b50565b6000813590506117f5816117cf565b92915050565b600080604083850312156118125761181161175d565b5b6000611820858286016117b0565b9250506020611831858286016117e6565b9150509250929050565b611844816117c5565b82525050565b600060208201905061185f600083018461183b565b92915050565b60007fffffffff0000000000000000000000000000000000000000000000000000000082169050919050565b61189a81611865565b81146118a557600080fd5b50565b6000813590506118b781611891565b92915050565b6000602082840312156118d3576118d261175d565b5b60006118e1848285016118a8565b91505092915050565b60008115159050919050565b6118ff816118ea565b82525050565b600060208201905061191a60008301846118f6565b92915050565b6000602082840312156119365761193561175d565b5b6000611944848285016117e6565b91505092915050565b600081519050919050565b600082825260208201905092915050565b60005b8381101561198757808201518184015260208101905061196c565b60008484015250505050565b6000601f19601f8301169050919050565b60006119af8261194d565b6119b98185611958565b93506119c9818560208601611969565b6119d281611993565b840191505092915050565b600060208201905081810360008301526119f781846119a4565b905092915050565b600080fd5b7f4e487b7100000000000000000000000000000000000000000000000000000000600052604160045260246000fd5b611a3c82611993565b810181811067ffffffffffffffff82111715611a5b57611a5a611a04565b5b80604052505050565b6000611a6e611753565b9050611a7a8282611a33565b919050565b600067ffffffffffffffff821115611a9a57611a99611a04565b5b602082029050602081019050919050565b600080fd5b6000611ac3611abe84611a7f565b611a64565b90508083825260208201905060208402830185811115611ae657611ae5611aab565b5b835b81811015611b0f5780611afb88826117e6565b845260208401935050602081019050611ae8565b5050509392505050565b600082601f830112611b2e57611b2d6119ff565b5b8135611b3e848260208601611ab0565b91505092915050565b600080fd5b600067ffffffffffffffff821115611b6757611b66611a04565b5b611b7082611993565b9050602081019050919050565b82818337600083830152505050565b6000611b9f611b9a84611b4c565b611a64565b905082815260208101848484011115611bbb57611bba611b47565b5b611bc6848285611b7d565b509392505050565b600082601f830112611be357611be26119ff565b5b8135611bf3848260208601611b8c565b91505092915050565b600080600080600060a08688031215611c1857611c1761175d565b5b6000611c26888289016117b0565b9550506020611c37888289016117b0565b945050604086013567ffffffffffffffff811115611c5857611c57611762565b5b611c6488828901611b19565b935050606086013567ffffffffffffffff811115611c8557611c84611762565b5b611c9188828901611b19565b925050608086013567ffffffffffffffff811115611cb257611cb1611762565b5b611cbe88828901611bce565b9150509295509295909350565b600067ffffffffffffffff821115611ce657611ce5611a04565b5b602082029050602081019050919050565b6000611d0a611d0584611ccb565b611a64565b90508083825260208201905060208402830185811115611d2d57611d2c611aab565b5b835b81811015611d565780611d4288826117b0565b845260208401935050602081019050611d2f565b5050509392505050565b600082601f830112611d7557611d746119ff565b5b8135611d85848260208601611cf7565b91505092915050565b60008060408385031215611da557611da461175d565b5b600083013567ffffffffffffffff811115611dc357611dc2611762565b5b611dcf85828601611d60565b925050602083013567ffffffffffffffff811115611df057611def611762565b5b611dfc85828601611b19565b9150509250929050565b600081519050919050565b600082825260208201905092915050565b6000819050602082019050919050565b611e3b816117c5565b82525050565b6000611e4d8383611e32565b60208301905092915050565b6000602082019050919050565b6000611e7182611e06565b611e7b8185611e11565b9350611e8683611e22565b8060005b83811015611eb7578151611e9e8882611e41565b9750611ea983611e59565b925050600181019050611e8a565b5085935050505092915050565b60006020820190508181036000830152611ede8184611e66565b905092915050565b611eef816118ea565b8114611efa57600080fd5b50565b600081359050611f0c81611ee6565b92915050565b60008060408385031215611f2957611f2861175d565b5b6000611f37858286016117b0565b9250506020611f4885828601611efd565b9150509250929050565b600080fd5b60008083601f840112611f6d57611f6c6119ff565b5b8235905067ffffffffffffffff811115611f8a57611f89611f52565b5b602083019150836020820283011115611fa657611fa5611aab565b5b9250929050565b600080600060408486031215611fc657611fc561175d565b5b600084013567ffffffffffffffff811115611fe457611fe3611762565b5b611ff086828701611f57565b93509350506020612003868287016117b0565b9150509250925092565b600080604083850312156120245761202361175d565b5b6000612032858286016117b0565b9250506020612043858286016117b0565b9150509250929050565b600080600080600060a086880312156120695761206861175d565b5b6000612077888289016117b0565b9550506020612088888289016117b0565b9450506040612099888289016117e6565b93505060606120aa888289016117e6565b925050608086013567ffffffffffffffff8111156120cb576120ca611762565b5b6120d788828901611bce565b9150509295509295909350565b7f455243313135353a2061646472657373207a65726f206973206e6f742061207660008201527f616c6964206f776e657200000000000000000000000000000000000000000000602082015250565b6000612140602a83611958565b915061214b826120e4565b604082019050919050565b6000602082019050818103600083015261216f81612133565b9050919050565b7f4e487b7100000000000000000000000000000000000000000000000000000000600052602260045260246000fd5b600060028204905060018216806121bd57607f821691505b6020821081036121d0576121cf612176565b5b50919050565b7f455243313135353a2063616c6c6572206973206e6f7420746f6b656e206f776e60008201527f6572206f7220617070726f766564000000000000000000000000000000000000602082015250565b6000612232602e83611958565b915061223d826121d6565b604082019050919050565b6000602082019050818103600083015261226181612225565b9050919050565b7f455243313135353a206163636f756e747320616e6420696473206c656e67746860008201527f206d69736d617463680000000000000000000000000000000000000000000000602082015250565b60006122c4602983611958565b91506122cf82612268565b604082019050919050565b600060208201905081810360008301526122f3816122b7565b9050919050565b7f4e487b7100000000000000000000000000000000000000000000000000000000600052603260045260246000fd5b7f4e487b7100000000000000000000000000000000000000000000000000000000600052601160045260246000fd5b6000612363826117c5565b91507fffffffffffffffffffffffffffffffffffffffffffffffffffffffffffffffff820361239557612394612329565b5b600182019050919050565b60008160601b9050919050565b60006123b8826123a0565b9050919050565b60006123ca826123ad565b9050919050565b6123e26123dd82611787565b6123bf565b82525050565b60006123f482846123d1565b60148201915081905092915050565b7f6e6f7420656c696769626c650000000000000000000000000000000000000000600082015250565b6000612439600c83611958565b915061244482612403565b602082019050919050565b600060208201905081810360008301526124688161242c565b9050919050565b7f616c726561647920636c61696d65640000000000000000000000000000000000600082015250565b60006124a5600f83611958565b91506124b08261246f565b602082019050919050565b600060208201905081810360008301526124d481612498565b9050919050565b7f455243313135353a2069647320616e6420616d6f756e7473206c656e6774682060008201527f6d69736d61746368000000000000000000000000000000000000000000000000602082015250565b6000612537602883611958565b9150612542826124db565b604082019050919050565b600060208201905081810360008301526125668161252a565b9050919050565b7f455243313135353a207472616e7366657220746f20746865207a65726f20616460008201527f6472657373000000000000000000000000000000000000000000000000000000602082015250565b60006125c9602583611958565b91506125d48261256d565b604082019050919050565b600060208201905081810360008301526125f8816125bc565b9050919050565b7f455243313135353a20696e73756666696369656e742062616c616e636520666f60008201527f72207472616e7366657200000000000000000000000000000000000000000000602082015250565b600061265b602a83611958565b9150612666826125ff565b604082019050919050565b6000602082019050818103600083015261268a8161264e565b9050919050565b600061269c826117c5565b91506126a7836117c5565b92508282019050808211156126bf576126be612329565b5b92915050565b600060408201905081810360008301526126df8185611e66565b905081810360208301526126f38184611e66565b90509392505050565b7f455243313135353a2073657474696e6720617070726f76616c2073746174757360008201527f20666f722073656c660000000000000000000000000000000000000000000000602082015250565b6000612758602983611958565b9150612763826126fc565b604082019050919050565b600060208201905081810360008301526127878161274b565b9050919050565b7f455243313135353a206d696e7420746f20746865207a65726f2061646472657360008201527f7300000000000000000000000000000000000000000000000000000000000000602082015250565b60006127ea602183611958565b91506127f58261278e565b604082019050919050565b60006020820190508181036000830152612819816127dd565b9050919050565b6000604082019050612835600083018561183b565b612842602083018461183b565b9392505050565b61285281611787565b82525050565b600081519050919050565b600082825260208201905092915050565b600061287f82612858565b6128898185612863565b9350612899818560208601611969565b6128a281611993565b840191505092915050565b600060a0820190506128c26000830188612849565b6128cf6020830187612849565b81810360408301526128e18186611e66565b905081810360608301526128f58185611e66565b905081810360808301526129098184612874565b90509695505050505050565b60008151905061292481611891565b92915050565b6000602082840312156129405761293f61175d565b5b600061294e84828501612915565b91505092915050565b60008160e01c9050919050565b600060033d11156129835760046000803e612980600051612957565b90505b90565b600060443d10612a1357612998611753565b60043d036004823e80513d602482011167ffffffffffffffff821117156129c0575050612a13565b808201805167ffffffffffffffff8111156129de5750505050612a13565b80602083010160043d0385018111156129fb575050505050612a13565b612a0a82602001850186611a33565b82955050505050505b90565b7f455243313135353a207472616e7366657220746f206e6f6e2d4552433131353560008201527f526563656976657220696d706c656d656e746572000000000000000000000000602082015250565b6000612a72603483611958565b9150612a7d82612a16565b604082019050919050565b60006020820190508181036000830152612aa181612a65565b9050919050565b7f455243313135353a204552433131353552656365697665722072656a6563746560008201527f6420746f6b656e73000000000000000000000000000000000000000000000000602082015250565b6000612b04602883611958565b9150612b0f82612aa8565b604082019050919050565b60006020820190508181036000830152612b3381612af7565b9050919050565b600060a082019050612b4f6000830188612849565b612b5c6020830187612849565b612b69604083018661183b565b612b76606083018561183b565b8181036080830152612b888184612874565b9050969550505050505056fea2646970667358221220b85d652585123a5e70a8d735934bad5a22faa7d36efd144fabbb0bef56c4318f64736f6c6343000811003368747470733a2f2f67616d652e6578616d706c652f6170692f6974656d2f7b69647d2e6a736f6e",
  "linkReferences": {},
  "deployedLinkReferences": {}
}