{
  "_format": "hh-sol-artifact-1",
  "contractName": "Token",
  "sourceName": "contracts/Token.sol",
  "abi": [
    {
      "inputs": [
        {
          "internalType": "bytes32",
          "name": "_root",
          "type": "bytes32"
        }
      ],
      "stateMutability": "nonpayable",
      "type": "constructor"
    },
    {
      "anonymous": false,
      "inputs": [
        {
          "indexed": true,
          "internalType": "address",
          "name": "owner",
          "type": "address"
        },
        {
          "indexed": true,
          "internalType": "address",
          "name": "spender",
          "type": "address"
        },
        {
          "indexed": false,
          "internalType": "uint256",
          "name": "value",
          "type": "uint256"
        }
      ],
      "name": "Approval",
      "type": "event"
    },
    {
      "anonymous": false,
      "inputs": [
        {
          "indexed": true,
          "internalType": "address",
          "name": "from",
          "type": "address"
        },
        {
          "indexed": true,
          "internalType": "address",
          "name": "to",
          "type": "address"
        },
        {
          "indexed": false,
          "internalType": "uint256",
          "name": "value",
          "type": "uint256"
        }
      ],
      "name": "Transfer",
      "type": "event"
    },
    {
      "inputs": [
        {
          "internalType": "bytes32[]",
          "name": "_proof",
          "type": "bytes32[]"
        },
        {
          "internalType": "address",
          "name": "_accountToSendTokensTo",
          "type": "address"
        }
      ],
      "name": "airdrop",
      "outputs": [],
      "stateMutability": "nonpayable",
      "type": "function"
    },
    {
      "inputs": [
        {
          "internalType": "address",
          "name": "owner",
          "type": "address"
        },
        {
          "internalType": "address",
          "name": "spender",
          "type": "address"
        }
      ],
      "name": "allowance",
      "outputs": [
        {
          "internalType": "uint256",
          "name": "",
          "type": "uint256"
        }
      ],
      "stateMutability": "view",
      "type": "function"
    },
    {
      "inputs": [
        {
          "internalType": "address",
          "name": "spender",
          "type": "address"
        },
        {
          "internalType": "uint256",
          "name": "amount",
          "type": "uint256"
        }
      ],
      "name": "approve",
      "outputs": [
        {
          "internalType": "bool",
          "name": "",
          "type": "bool"
        }
      ],
      "stateMutability": "nonpayable",
      "type": "function"
    },
    {
      "inputs": [
        {
          "internalType": "address",
          "name": "account",
          "type": "address"
        }
      ],
      "name": "balanceOf",
      "outputs": [
        {
          "internalType": "uint256",
          "name": "",
          "type": "uint256"
        }
      ],
      "stateMutability": "view",
      "type": "function"
    },
    {
      "inputs": [],
      "name": "decimals",
      "outputs": [
        {
          "internalType": "uint8",
          "name": "",
          "type": "uint8"
        }
      ],
      "stateMutability": "view",
      "type": "function"
    },
    {
      "inputs": [
        {
          "internalType": "address",
          "name": "spender",
          "type": "address"
        },
        {
          "internalType": "uint256",
          "name": "subtractedValue",
          "type": "uint256"
        }
      ],
      "name": "decreaseAllowance",
      "outputs": [
        {
          "internalType": "bool",
          "name": "",
          "type": "bool"
        }
      ],
      "stateMutability": "nonpayable",
      "type": "function"
    },
    {
      "inputs": [
        {
          "internalType": "address",
          "name": "spender",
          "type": "address"
        },
        {
          "internalType": "uint256",
          "name": "addedValue",
          "type": "uint256"
        }
      ],
      "name": "increaseAllowance",
      "outputs": [
        {
          "internalType": "bool",
          "name": "",
          "type": "bool"
        }
      ],
      "stateMutability": "nonpayable",
      "type": "function"
    },
    {
      "inputs": [],
      "name": "name",
      "outputs": [
        {
          "internalType": "string",
          "name": "",
          "type": "string"
        }
      ],
      "stateMutability": "view",
      "type": "function"
    },
    {
      "inputs": [],
      "name": "symbol",
      "outputs": [
        {
          "internalType": "string",
          "name": "",
          "type": "string"
        }
      ],
      "stateMutability": "view",
      "type": "function"
    },
    {
      "inputs": [],
      "name": "totalSupply",
      "outputs": [
        {
          "internalType": "uint256",
          "name": "",
          "type": "uint256"
        }
      ],
      "stateMutability": "view",
      "type": "function"
    },
    {
      "inputs": [
        {
          "internalType": "address",
          "name": "to",
          "type": "address"
        },
        {
          "internalType": "uint256",
          "name": "amount",
          "type": "uint256"
        }
      ],
      "name": "transfer",
      "outputs": [
        {
          "internalType": "bool",
          "name": "",
          "type": "bool"
        }
      ],
      "stateMutability": "nonpayable",
      "type": "function"
    },
    {
      "inputs": [
        {
          "internalType": "address",
          "name": "from",
          "type": "address"
        },
        {
          "internalType": "address",
          "name": "to",
          "type": "address"
        },
        {
          "internalType": "uint256",
          "name": "amount",
          "type": "uint256"
        }
      ],
      "name": "transferFrom",
      "outputs": [
        {
          "internalType": "bool",
          "name": "",
          "type": "bool"
        }
      ],
      "stateMutability": "nonpayable",
      "type": "function"
    }
  ],
  "bytecode": "0x60806040523480156200001157600080fd5b5060405162000d6f38038062000d6f83398101604081905262000034916200014e565b604051806040016040528060058152602001642a37b5b2b760d91b815250604051806040016040528060038152602001621352d560ea1b815250816003908051906020019062000086929190620000a8565b5080516200009c906004906020840190620000a8565b505050600555620001a4565b828054620000b69062000167565b90600052602060002090601f016020900481019282620000da576000855562000125565b82601f10620000f557805160ff191683800117855562000125565b8280016001018555821562000125579182015b828111156200012557825182559160200191906001019062000108565b506200013392915062000137565b5090565b5b8082111562000133576000815560010162000138565b60006020828403121562000160578081fd5b5051919050565b600181811c908216806200017c57607f821691505b602082108114156200019e57634e487b7160e01b600052602260045260246000fd5b50919050565b610bbb80620001b46000396000f3fe608060405234801561001057600080fd5b50600436106100b45760003560e01c806370a082311161007157806370a082311461014157806395d89b411461016a578063a457c2d714610172578063a9059cbb14610185578063c373a98c14610198578063dd62ed3e146101ad57600080fd5b806306fdde03146100b9578063095ea7b3146100d757806318160ddd146100fa57806323b872dd1461010c578063313ce5671461011f578063395093511461012e575b600080fd5b6100c16101c0565b6040516100ce9190610aae565b60405180910390f35b6100ea6100e5366004610a06565b610252565b60405190151581526020016100ce565b6002545b6040519081526020016100ce565b6100ea61011a3660046109cb565b61026a565b604051601281526020016100ce565b6100ea61013c366004610a06565b61028e565b6100fe61014f36600461097f565b6001600160a01b031660009081526020819052604090205490565b6100c16102b0565b6100ea610180366004610a06565b6102bf565b6100ea610193366004610a06565b61033f565b6101ab6101a6366004610a2f565b61034d565b005b6100fe6101bb366004610999565b61049a565b6060600380546101cf90610b19565b80601f01602080910402602001604051908101604052809291908181526020018280546101fb90610b19565b80156102485780601f1061021d57610100808354040283529160200191610248565b820191906000526020600020905b81548152906001019060200180831161022b57829003601f168201915b5050505050905090565b6000336102608185856104c5565b5060019392505050565b6000336102788582856105e9565b61028385858561065d565b506001949350505050565b6000336102608185856102a1838361049a565b6102ab9190610b01565b6104c5565b6060600480546101cf90610b19565b600033816102cd828661049a565b9050838110156103325760405162461bcd60e51b815260206004820152602560248201527f45524332303a2064656372656173656420616c6c6f77616e63652062656c6f77604482015264207a65726f60d81b60648201526084015b60405180910390fd5b61028382868684036104c5565b60003361026081858561065d565b60006103c5848480806020026020016040519081016040528093929190818152602001838360200280828437600092019190915250506005546040516bffffffffffffffffffffffff19606089901b166020820152909250603401905060405160208183030381529060405280519060200120610801565b9050806104035760405162461bcd60e51b815260206004820152600c60248201526b6e6f7420656c696769626c6560a01b6044820152606401610329565b6001600160a01b03821660009081526006602052604090205460ff161561045e5760405162461bcd60e51b815260206004820152600f60248201526e185b1c9958591e4818db185a5b5959608a1b6044820152606401610329565b6001600160a01b0382166000908152600660205260409020805460ff1916600117905561049482683635c9adc5dea00000610817565b50505050565b6001600160a01b03918216600090815260016020908152604080832093909416825291909152205490565b6001600160a01b0383166105275760405162461bcd60e51b8152602060048201526024808201527f45524332303a20617070726f76652066726f6d20746865207a65726f206164646044820152637265737360e01b6064820152608401610329565b6001600160a01b0382166105885760405162461bcd60e51b815260206004820152602260248201527f45524332303a20617070726f766520746f20746865207a65726f206164647265604482015261737360f01b6064820152608401610329565b6001600160a01b0383811660008181526001602090815260408083209487168084529482529182902085905590518481527f8c5be1e5ebec7d5bd14f71427d1e84f3dd0314c0f7b2291e5b200ac8c7c3b925910160405180910390a3505050565b60006105f5848461049a565b9050600019811461049457818110156106505760405162461bcd60e51b815260206004820152601d60248201527f45524332303a20696e73756666696369656e7420616c6c6f77616e63650000006044820152606401610329565b61049484848484036104c5565b6001600160a01b0383166106c15760405162461bcd60e51b815260206004820152602560248201527f45524332303a207472616e736665722066726f6d20746865207a65726f206164604482015264647265737360d81b6064820152608401610329565b6001600160a01b0382166107235760405162461bcd60e51b815260206004820152602360248201527f45524332303a207472616e7366657220746f20746865207a65726f206164647260448201526265737360e81b6064820152608401610329565b6001600160a01b0383166000908152602081905260409020548181101561079b5760405162461bcd60e51b815260206004820152602660248201527f45524332303a207472616e7366657220616d6f756e7420657863656564732062604482015265616c616e636560d01b6064820152608401610329565b6001600160a01b03848116600081815260208181526040808320878703905593871680835291849020805487019055925185815290927fddf252ad1be2c89b69c2b068fc378daa952ba7f163c4a11628f55a4df523b3ef910160405180910390a3610494565b60008261080e85846108d6565b14949350505050565b6001600160a01b03821661086d5760405162461bcd60e51b815260206004820152601f60248201527f45524332303a206d696e7420746f20746865207a65726f2061646472657373006044820152606401610329565b806002600082825461087f9190610b01565b90915550506001600160a01b038216600081815260208181526040808320805486019055518481527fddf252ad1be2c89b69c2b068fc378daa952ba7f163c4a11628f55a4df523b3ef910160405180910390a35050565b600081815b8451811015610929576109158286838151811061090857634e487b7160e01b600052603260045260246000fd5b6020026020010151610931565b91508061092181610b54565b9150506108db565b509392505050565b600081831061094d57600082815260208490526040902061095c565b60008381526020839052604090205b9392505050565b80356001600160a01b038116811461097a57600080fd5b919050565b600060208284031215610990578081fd5b61095c82610963565b600080604083850312156109ab578081fd5b6109b483610963565b91506109c260208401610963565b90509250929050565b6000806000606084860312156109df578081fd5b6109e884610963565b92506109f660208501610963565b9150604084013590509250925092565b60008060408385031215610a18578182fd5b610a2183610963565b946020939093013593505050565b600080600060408486031215610a43578283fd5b833567ffffffffffffffff80821115610a5a578485fd5b818601915086601f830112610a6d578485fd5b813581811115610a7b578586fd5b8760208260051b8501011115610a8f578586fd5b602092830195509350610aa59186019050610963565b90509250925092565b6000602080835283518082850152825b81811015610ada57858101830151858201604001528201610abe565b81811115610aeb5783604083870101525b50601f01601f1916929092016040019392505050565b60008219821115610b1457610b14610b6f565b500190565b600181811c90821680610b2d57607f821691505b60208210811415610b4e57634e487b7160e01b600052602260045260246000fd5b50919050565b6000600019821415610b6857610b68610b6f565b5060010190565b634e487b7160e01b600052601160045260246000fdfea264697066735822122013582b36c4bd64a65eb2627e5d95d43c379d3eeb0c72170d2fd14cb9664a2a3e64736f6c63430008040033",
  "linkReferences": {},
  "deployedLinkReferences": {}
}