{
  "_format": "hh-sol-artifact-1",
  "contractName": "Token",
  "sourceName": "contracts/Token.sol",
  "abi": [
    {
      "inputs": [
        {
          "internalType": "bytes32",
          "name": "_root",
          "type": "bytes32"
        }
      ],
      "stateMutability": "nonpayable",
      "type": "constructor"
    },
    {
      "anonymous": false,
      "inputs": [
        {
          "indexed": true,
          "internalType": "address",
          "name": "owner",
          "type": "address"
        },
        {
          "indexed": true,
          "internalType": "address",
          "name": "spender",
          "type": "address"
        },
        {
          "indexed": false,
          "internalType": "uint256",
          "name": "value",
          "type": "uint256"
        }
      ],
      "name": "Approval",
      "type": "event"
    },
    {
      "anonymous": false,
      "inputs": [
        {
          "indexed": true,
          "internalType": "address",
          "name": "from",
          "type": "address"
        },
        {
          "indexed": true,
          "internalType": "address",
          "name": "to",
          "type": "address"
        },
        {
          "indexed": false,
          "internalType": "uint256",
          "name": "value",
          "type": "uint256"
        }
      ],
      "name": "Transfer",
      "type": "event"
    },
    {
      "inputs": [
        {
          "internalType": "bytes32[]",
          "name": "_proof",
          "type": "bytes32[]"
        }
      ],
      "name": "airdrop",
      "outputs": [],
      "stateMutability": "nonpayable",
      "type": "function"
    },
    {
      "inputs": [
        {
          "internalType": "address",
          "name": "owner",
          "type": "address"
        },
        {
          "internalType": "address",
          "name": "spender",
          "type": "address"
        }
      ],
      "name": "allowance",
      "outputs": [
        {
          "internalType": "uint256",
          "name": "",
          "type": "uint256"
        }
      ],
      "stateMutability": "view",
      "type": "function"
    },
    {
      "inputs": [
        {
          "internalType": "address",
          "name": "spender",
          "type": "address"
        },
        {
          "internalType": "uint256",
          "name": "amount",
          "type": "uint256"
        }
      ],
      "name": "approve",
      "outputs": [
        {
          "internalType": "bool",
          "name": "",
          "type": "bool"
        }
      ],
      "stateMutability": "nonpayable",
      "type": "function"
    },
    {
      "inputs": [
        {
          "internalType": "address",
          "name": "account",
          "type": "address"
        }
      ],
      "name": "balanceOf",
      "outputs": [
        {
          "internalType": "uint256",
          "name": "",
          "type": "uint256"
        }
      ],
      "stateMutability": "view",
      "type": "function"
    },
    {
      "inputs": [],
      "name": "decimals",
      "outputs": [
        {
          "internalType": "uint8",
          "name": "",
          "type": "uint8"
        }
      ],
      "stateMutability": "view",
      "type": "function"
    },
    {
      "inputs": [
        {
          "internalType": "address",
          "name": "spender",
          "type": "address"
        },
        {
          "internalType": "uint256",
          "name": "subtractedValue",
          "type": "uint256"
        }
      ],
      "name": "decreaseAllowance",
      "outputs": [
        {
          "internalType": "bool",
          "name": "",
          "type": "bool"
        }
      ],
      "stateMutability": "nonpayable",
      "type": "function"
    },
    {
      "inputs": [
        {
          "internalType": "address",
          "name": "spender",
          "type": "address"
        },
        {
          "internalType": "uint256",
          "name": "addedValue",
          "type": "uint256"
        }
      ],
      "name": "increaseAllowance",
      "outputs": [
        {
          "internalType": "bool",
          "name": "",
          "type": "bool"
        }
      ],
      "stateMutability": "nonpayable",
      "type": "function"
    },
    {
      "inputs": [],
      "name": "name",
      "outputs": [
        {
          "internalType": "string",
          "name": "",
          "type": "string"
        }
      ],
      "stateMutability": "view",
      "type": "function"
    },
    {
      "inputs": [],
      "name": "symbol",
      "outputs": [
        {
          "internalType": "string",
          "name": "",
          "type": "string"
        }
      ],
      "stateMutability": "view",
      "type": "function"
    },
    {
      "inputs": [],
      "name": "totalSupply",
      "outputs": [
        {
          "internalType": "uint256",
          "name": "",
          "type": "uint256"
        }
      ],
      "stateMutability": "view",
      "type": "function"
    },
    {
      "inputs": [
        {
          "internalType": "address",
          "name": "to",
          "type": "address"
        },
        {
          "internalType": "uint256",
          "name": "amount",
          "type": "uint256"
        }
      ],
      "name": "transfer",
      "outputs": [
        {
          "internalType": "bool",
          "name": "",
          "type": "bool"
        }
      ],
      "stateMutability": "nonpayable",
      "type": "function"
    },
    {
      "inputs": [
        {
          "internalType": "address",
          "name": "from",
          "type": "address"
        },
        {
          "internalType": "address",
          "name": "to",
          "type": "address"
        },
        {
          "internalType": "uint256",
          "name": "amount",
          "type": "uint256"
        }
      ],
      "name": "transferFrom",
      "outputs": [
        {
          "internalType": "bool",
          "name": "",
          "type": "bool"
        }
      ],
      "stateMutability": "nonpayable",
      "type": "function"
    }
  ],
  "bytecode": "0x60806040523480156200001157600080fd5b5060405162001da538038062001da5833981810160405281019062000037919062000117565b6040518060400160405280600581526020017f546f6b656e0000000000000000000000000000000000000000000000000000008152506040518060400160405280600381526020017f4d4b5400000000000000000000000000000000000000000000000000000000008152508160039081620000b49190620003c3565b508060049081620000c69190620003c3565b5050508060058190555050620004aa565b600080fd5b6000819050919050565b620000f181620000dc565b8114620000fd57600080fd5b50565b6000815190506200011181620000e6565b92915050565b60006020828403121562000130576200012f620000d7565b5b6000620001408482850162000100565b91505092915050565b600081519050919050565b7f4e487b7100000000000000000000000000000000000000000000000000000000600052604160045260246000fd5b7f4e487b7100000000000000000000000000000000000000000000000000000000600052602260045260246000fd5b60006002820490506001821680620001cb57607f821691505b602082108103620001e157620001e062000183565b5b50919050565b60008190508160005260206000209050919050565b60006020601f8301049050919050565b600082821b905092915050565b6000600883026200024b7fffffffffffffffffffffffffffffffffffffffffffffffffffffffffffffffff826200020c565b6200025786836200020c565b95508019841693508086168417925050509392505050565b6000819050919050565b6000819050919050565b6000620002a46200029e62000298846200026f565b62000279565b6200026f565b9050919050565b6000819050919050565b620002c08362000283565b620002d8620002cf82620002ab565b84845462000219565b825550505050565b600090565b620002ef620002e0565b620002fc818484620002b5565b505050565b5b81811015620003245762000318600082620002e5565b60018101905062000302565b5050565b601f82111562000373576200033d81620001e7565b6200034884620001fc565b8101602085101562000358578190505b620003706200036785620001fc565b83018262000301565b50505b505050565b600082821c905092915050565b6000620003986000198460080262000378565b1980831691505092915050565b6000620003b3838362000385565b9150826002028217905092915050565b620003ce8262000149565b67ffffffffffffffff811115620003ea57620003e962000154565b5b620003f68254620001b2565b6200040382828562000328565b600060209050601f8311600181146200043b576000841562000426578287015190505b620004328582620003a5565b865550620004a2565b601f1984166200044b86620001e7565b60005b8281101562000475578489015182556001820191506020850194506020810190506200044e565b8683101562000495578489015162000491601f89168262000385565b8355505b6001600288020188555050505b505050505050565b6118eb80620004ba6000396000f3fe608060405234801561001057600080fd5b50600436106100b45760003560e01c806370a082311161007157806370a08231146101a357806395d89b41146101d3578063a457c2d7146101f1578063a9059cbb14610221578063dd62ed3e14610251578063e9c0a91814610281576100b4565b806306fdde03146100b9578063095ea7b3146100d757806318160ddd1461010757806323b872dd14610125578063313ce567146101555780633950935114610173575b600080fd5b6100c161029d565b6040516100ce9190610ef3565b60405180910390f35b6100f160048036038101906100ec9190610fb3565b61032f565b6040516100fe919061100e565b60405180910390f35b61010f610352565b60405161011c9190611038565b60405180910390f35b61013f600480360381019061013a9190611053565b61035c565b60405161014c919061100e565b60405180910390f35b61015d61038b565b60405161016a91906110c2565b60405180910390f35b61018d60048036038101906101889190610fb3565b610394565b60405161019a919061100e565b60405180910390f35b6101bd60048036038101906101b891906110dd565b6103cb565b6040516101ca9190611038565b60405180910390f35b6101db610413565b6040516101e89190610ef3565b60405180910390f35b61020b60048036038101906102069190610fb3565b6104a5565b604051610218919061100e565b60405180910390f35b61023b60048036038101906102369190610fb3565b61051c565b604051610248919061100e565b60405180910390f35b61026b6004803603810190610266919061110a565b61053f565b6040516102789190611038565b60405180910390f35b61029b600480360381019061029691906111af565b6105c6565b005b6060600380546102ac9061122b565b80601f01602080910402602001604051908101604052809291908181526020018280546102d89061122b565b80156103255780601f106102fa57610100808354040283529160200191610325565b820191906000526020600020905b81548152906001019060200180831161030857829003601f168201915b5050505050905090565b60008061033a610781565b9050610347818585610789565b600191505092915050565b6000600254905090565b600080610367610781565b9050610374858285610952565b61037f8585856109de565b60019150509392505050565b60006012905090565b60008061039f610781565b90506103c08185856103b1858961053f565b6103bb919061128b565b610789565b600191505092915050565b60008060008373ffffffffffffffffffffffffffffffffffffffff1673ffffffffffffffffffffffffffffffffffffffff168152602001908152602001600020549050919050565b6060600480546104229061122b565b80601f016020809104026020016040519081016040528092919081815260200182805461044e9061122b565b801561049b5780601f106104705761010080835404028352916020019161049b565b820191906000526020600020905b81548152906001019060200180831161047e57829003601f168201915b5050505050905090565b6000806104b0610781565b905060006104be828661053f565b905083811015610503576040517f08c379a00000000000000000000000000000000000000000000000000000000081526004016104fa90611331565b60405180910390fd5b6105108286868403610789565b60019250505092915050565b600080610527610781565b90506105348185856109de565b600191505092915050565b6000600160008473ffffffffffffffffffffffffffffffffffffffff1673ffffffffffffffffffffffffffffffffffffffff16815260200190815260200160002060008373ffffffffffffffffffffffffffffffffffffffff1673ffffffffffffffffffffffffffffffffffffffff16815260200190815260200160002054905092915050565b600061063c838380806020026020016040519081016040528093929190818152602001838360200280828437600081840152601f19601f82011690508083019250505050505050600554336040516020016106219190611399565b60405160208183030381529060405280519060200120610c54565b90508061067e576040517f08c379a000000000000000000000000000000000000000000000000000000000815260040161067590611400565b60405180910390fd5b60001515600660003373ffffffffffffffffffffffffffffffffffffffff1673ffffffffffffffffffffffffffffffffffffffff16815260200190815260200160002060009054906101000a900460ff16151514610711576040517f08c379a00000000000000000000000000000000000000000000000000000000081526004016107089061146c565b60405180910390fd5b6001600660003373ffffffffffffffffffffffffffffffffffffffff1673ffffffffffffffffffffffffffffffffffffffff16815260200190815260200160002060006101000a81548160ff02191690831515021790555061077c33683635c9adc5dea00000610c6b565b505050565b600033905090565b600073ffffffffffffffffffffffffffffffffffffffff168373ffffffffffffffffffffffffffffffffffffffff16036107f8576040517f08c379a00000000000000000000000000000000000000000000000000000000081526004016107ef906114fe565b60405180910390fd5b600073ffffffffffffffffffffffffffffffffffffffff168273ffffffffffffffffffffffffffffffffffffffff1603610867576040517f08c379a000000000000000000000000000000000000000000000000000000000815260040161085e90611590565b60405180910390fd5b80600160008573ffffffffffffffffffffffffffffffffffffffff1673ffffffffffffffffffffffffffffffffffffffff16815260200190815260200160002060008473ffffffffffffffffffffffffffffffffffffffff1673ffffffffffffffffffffffffffffffffffffffff168152602001908152602001600020819055508173ffffffffffffffffffffffffffffffffffffffff168373ffffffffffffffffffffffffffffffffffffffff167f8c5be1e5ebec7d5bd14f71427d1e84f3dd0314c0f7b2291e5b200ac8c7c3b925836040516109459190611038565b60405180910390a3505050565b600061095e848461053f565b90507fffffffffffffffffffffffffffffffffffffffffffffffffffffffffffffffff81146109d857818110156109ca576040517f08c379a00000000000000000000000000000000000000000000000000000000081526004016109c1906115fc565b60405180910390fd5b6109d78484848403610789565b5b50505050565b600073ffffffffffffffffffffffffffffffffffffffff168373ffffffffffffffffffffffffffffffffffffffff1603610a4d576040517f08c379a0000000000000000000000000000000000000000000000000000000008152600401610a449061168e565b60405180910390fd5b600073ffffffffffffffffffffffffffffffffffffffff168273ffffffffffffffffffffffffffffffffffffffff1603610abc576040517f08c379a0000000000000000000000000000000000000000000000000000000008152600401610ab390611720565b60405180910390fd5b610ac7838383610dc1565b60008060008573ffffffffffffffffffffffffffffffffffffffff1673ffffffffffffffffffffffffffffffffffffffff16815260200190815260200160002054905081811015610b4d576040517f08c379a0000000000000000000000000000000000000000000000000000000008152600401610b44906117b2565b60405180910390fd5b8181036000808673ffffffffffffffffffffffffffffffffffffffff1673ffffffffffffffffffffffffffffffffffffffff16815260200190815260200160002081905550816000808573ffffffffffffffffffffffffffffffffffffffff1673ffffffffffffffffffffffffffffffffffffffff168152602001908152602001600020600082825401925050819055508273ffffffffffffffffffffffffffffffffffffffff168473ffffffffffffffffffffffffffffffffffffffff167fddf252ad1be2c89b69c2b068fc378daa952ba7f163c4a11628f55a4df523b3ef84604051610c3b9190611038565b60405180910390a3610c4e848484610dc6565b50505050565b600082610c618584610dcb565b1490509392505050565b600073ffffffffffffffffffffffffffffffffffffffff168273ffffffffffffffffffffffffffffffffffffffff1603610cda576040517f08c379a0000000000000000000000000000000000000000000000000000000008152600401610cd19061181e565b60405180910390fd5b610ce660008383610dc1565b8060026000828254610cf8919061128b565b92505081905550806000808473ffffffffffffffffffffffffffffffffffffffff1673ffffffffffffffffffffffffffffffffffffffff168152602001908152602001600020600082825401925050819055508173ffffffffffffffffffffffffffffffffffffffff16600073ffffffffffffffffffffffffffffffffffffffff167fddf252ad1be2c89b69c2b068fc378daa952ba7f163c4a11628f55a4df523b3ef83604051610da99190611038565b60405180910390a3610dbd60008383610dc6565b5050565b505050565b505050565b60008082905060005b8451811015610e1657610e0182868381518110610df457610df361183e565b5b6020026020010151610e21565b91508080610e0e9061186d565b915050610dd4565b508091505092915050565b6000818310610e3957610e348284610e4c565b610e44565b610e438383610e4c565b5b905092915050565b600082600052816020526040600020905092915050565b600081519050919050565b600082825260208201905092915050565b60005b83811015610e9d578082015181840152602081019050610e82565b60008484015250505050565b6000601f19601f8301169050919050565b6000610ec582610e63565b610ecf8185610e6e565b9350610edf818560208601610e7f565b610ee881610ea9565b840191505092915050565b60006020820190508181036000830152610f0d8184610eba565b905092915050565b600080fd5b600080fd5b600073ffffffffffffffffffffffffffffffffffffffff82169050919050565b6000610f4a82610f1f565b9050919050565b610f5a81610f3f565b8114610f6557600080fd5b50565b600081359050610f7781610f51565b92915050565b6000819050919050565b610f9081610f7d565b8114610f9b57600080fd5b50565b600081359050610fad81610f87565b92915050565b60008060408385031215610fca57610fc9610f15565b5b6000610fd885828601610f68565b9250506020610fe985828601610f9e565b9150509250929050565b60008115159050919050565b61100881610ff3565b82525050565b60006020820190506110236000830184610fff565b92915050565b61103281610f7d565b82525050565b600060208201905061104d6000830184611029565b92915050565b60008060006060848603121561106c5761106b610f15565b5b600061107a86828701610f68565b935050602061108b86828701610f68565b925050604061109c86828701610f9e565b9150509250925092565b600060ff82169050919050565b6110bc816110a6565b82525050565b60006020820190506110d760008301846110b3565b92915050565b6000602082840312156110f3576110f2610f15565b5b600061110184828501610f68565b91505092915050565b6000806040838503121561112157611120610f15565b5b600061112f85828601610f68565b925050602061114085828601610f68565b9150509250929050565b600080fd5b600080fd5b600080fd5b60008083601f84011261116f5761116e61114a565b5b8235905067ffffffffffffffff81111561118c5761118b61114f565b5b6020830191508360208202830111156111a8576111a7611154565b5b9250929050565b600080602083850312156111c6576111c5610f15565b5b600083013567ffffffffffffffff8111156111e4576111e3610f1a565b5b6111f085828601611159565b92509250509250929050565b7f4e487b7100000000000000000000000000000000000000000000000000000000600052602260045260246000fd5b6000600282049050600182168061124357607f821691505b602082108103611256576112556111fc565b5b50919050565b7f4e487b7100000000000000000000000000000000000000000000000000000000600052601160045260246000fd5b600061129682610f7d565b91506112a183610f7d565b92508282019050808211156112b9576112b861125c565b5b92915050565b7f45524332303a2064656372656173656420616c6c6f77616e63652062656c6f7760008201527f207a65726f000000000000000000000000000000000000000000000000000000602082015250565b600061131b602583610e6e565b9150611326826112bf565b604082019050919050565b6000602082019050818103600083015261134a8161130e565b9050919050565b60008160601b9050919050565b600061136982611351565b9050919050565b600061137b8261135e565b9050919050565b61139361138e82610f3f565b611370565b82525050565b60006113a58284611382565b60148201915081905092915050565b7f6e6f7420656c696769626c650000000000000000000000000000000000000000600082015250565b60006113ea600c83610e6e565b91506113f5826113b4565b602082019050919050565b60006020820190508181036000830152611419816113dd565b9050919050565b7f616c726561647920636c61696d65640000000000000000000000000000000000600082015250565b6000611456600f83610e6e565b915061146182611420565b602082019050919050565b6000602082019050818103600083015261148581611449565b9050919050565b7f45524332303a20617070726f76652066726f6d20746865207a65726f2061646460008201527f7265737300000000000000000000000000000000000000000000000000000000602082015250565b60006114e8602483610e6e565b91506114f38261148c565b604082019050919050565b60006020820190508181036000830152611517816114db565b9050919050565b7f45524332303a20617070726f766520746f20746865207a65726f20616464726560008201527f7373000000000000000000000000000000000000000000000000000000000000602082015250565b600061157a602283610e6e565b91506115858261151e565b604082019050919050565b600060208201905081810360008301526115a98161156d565b9050919050565b7f45524332303a20696e73756666696369656e7420616c6c6f77616e6365000000600082015250565b60006115e6601d83610e6e565b91506115f1826115b0565b602082019050919050565b60006020820190508181036000830152611615816115d9565b9050919050565b7f45524332303a207472616e736665722066726f6d20746865207a65726f20616460008201527f6472657373000000000000000000000000000000000000000000000000000000602082015250565b6000611678602583610e6e565b91506116838261161c565b604082019050919050565b600060208201905081810360008301526116a78161166b565b9050919050565b7f45524332303a207472616e7366657220746f20746865207a65726f206164647260008201527f6573730000000000000000000000000000000000000000000000000000000000602082015250565b600061170a602383610e6e565b9150611715826116ae565b604082019050919050565b60006020820190508181036000830152611739816116fd565b9050919050565b7f45524332303a207472616e7366657220616d6f756e742065786365656473206260008201527f616c616e63650000000000000000000000000000000000000000000000000000602082015250565b600061179c602683610e6e565b91506117a782611740565b604082019050919050565b600060208201905081810360008301526117cb8161178f565b9050919050565b7f45524332303a206d696e7420746f20746865207a65726f206164647265737300600082015250565b6000611808601f83610e6e565b9150611813826117d2565b602082019050919050565b60006020820190508181036000830152611837816117fb565b9050919050565b7f4e487b7100000000000000000000000000000000000000000000000000000000600052603260045260246000fd5b600061187882610f7d565b91507fffffffffffffffffffffffffffffffffffffffffffffffffffffffffffffffff82036118aa576118a961125c565b5b60018201905091905056fea2646970667358221220a9e76e9cee195beececfd5320e024550a4351a2c6f3ec2ff94c9c405b94f5c3c64736f6c63430008110033",
  "linkReferences": {},
  "deployedLinkReferences": {}
}